{
  "_format": "hh-sol-artifact-1",
  "contractName": "LookupContract",
  "sourceName": "contracts/LookupContract.sol",
  "abi": [
    {
      "inputs": [
        {
          "internalType": "string",
          "name": "_name",
          "type": "string"
        },
        {
          "internalType": "uint256",
          "name": "_mobileNumber",
          "type": "uint256"
        }
      ],
      "stateMutability": "nonpayable",
      "type": "constructor"
    },
    {
      "inputs": [
        {
          "internalType": "string",
          "name": "_name",
          "type": "string"
        }
      ],
      "name": "getMobileNumber",
      "outputs": [
        {
          "internalType": "uint256",
          "name": "",
          "type": "uint256"
        }
      ],
      "stateMutability": "view",
      "type": "function"
    },
    {
      "inputs": [
        {
          "internalType": "string",
          "name": "",
          "type": "string"
        }
      ],
      "name": "myDirectory",
      "outputs": [
        {
          "internalType": "uint256",
          "name": "",
          "type": "uint256"
        }
      ],
      "stateMutability": "view",
      "type": "function"
    },
    {
      "inputs": [
        {
          "internalType": "string",
          "name": "_name",
          "type": "string"
        },
        {
          "internalType": "uint256",
          "name": "_mobileNumber",
          "type": "uint256"
        }
      ],
      "name": "setMobileNumber",
      "outputs": [],
      "stateMutability": "nonpayable",
      "type": "function"
    }
  ],
  "bytecode": "0x608060405234801561001057600080fd5b5060405161040938038061040983398101604081905261002f9161009e565b806000836040516100409190610154565b90815260405190819003602001902055506101709050565b634e487b7160e01b600052604160045260246000fd5b60005b83811015610089578181015183820152602001610071565b83811115610098576000848401525b50505050565b600080604083850312156100b157600080fd5b82516001600160401b03808211156100c857600080fd5b818501915085601f8301126100dc57600080fd5b8151818111156100ee576100ee610058565b604051601f8201601f19908116603f0116810190838211818310171561011657610116610058565b8160405282815288602084870101111561012f57600080fd5b61014083602083016020880161006e565b602097909701519698969750505050505050565b6000825161016681846020870161006e565b9190910192915050565b61028a8061017f6000396000f3fe608060405234801561001057600080fd5b50600436106100415760003560e01c806314b3ee68146100465780639f1159211461006b578063fd8111e914610080575b600080fd5b610059610054366004610199565b6100ab565b60405190815260200160405180910390f35b61007e6100793660046101d5565b6100d2565b005b61005961008e366004610199565b805160208183018101805160008252928201919093012091525481565b600080826040516100bc9190610219565b9081526020016040518091039020549050919050565b806000836040516100e39190610219565b908152604051908190036020019020555050565b634e487b7160e01b600052604160045260246000fd5b600082601f83011261011e57600080fd5b81356001600160401b0380821115610138576101386100f7565b604051601f8301601f19908116603f01168101908282118183101715610160576101606100f7565b8160405283815286602085880101111561017957600080fd5b836020870160208301376000602085830101528094505050505092915050565b6000602082840312156101ab57600080fd5b81356001600160401b038111156101c157600080fd5b6101cd8482850161010d565b949350505050565b600080604083850312156101e857600080fd5b82356001600160401b038111156101fe57600080fd5b61020a8582860161010d565b95602094909401359450505050565b6000825160005b8181101561023a5760208186018101518583015201610220565b81811115610249576000828501525b50919091019291505056fea2646970667358221220517783b7e4b1c1d22eaf6a428ee0c3c56fdf526368ee9d0a77e4a17e90f243a764736f6c634300080f0033",
  "linkReferences": {},
  "deployedLinkReferences": {}
}